:100000006F90A05B130000001300000013000000BD
:100010001300000013000000130000001300000094
:100020001300000013000000130000001300000084
:08003000130000007300100032
:100038000000000000000000289300003893000032
:100048000000000000950000000000000000000013
:100058000295000004950000000000000000000068
:100068000695000000000000089500000000000050
:100078000A9500000C9500000E95000010950000F0
:100088001295000014950000208A0000948A000050
:10009800088B00007C8B0000F08B0000209500008E
:1000A8002295000024950000269500002895000060
:1000B8002A9500002C9500002E9500003095000030
:1000C800329500003495000036950000648C0000DD
:1000D8003A950000288E00003E95000040950000EB
:1000E800A88E0000208F0000A88F0000489500000F
:1000F8004A9500004C9500004E9500005095000070
:100108005295000064850000E88500006C860000B8
:100118003C8D00005C9500005E9500006095000035
:10012800AC91000064950000669500006895000099
:100138006A9500006C9500002890000070950000FA
:10014800F086000074870000A89000002491000049
:100158007A9500007C9500007E950000809500004F
:10016800829500008495000086950000889500001F
:100178008A9500008C9500008E9500003CBA00001E
:10018800929500009495000090890000F687000081
:100198007A880000148900009E9500002C920000C7
:1001A800A2950000A4950000A6950000B09200005A
:1001B800AA950000AC950000AE950000B09500002F
:1001C800B2950000B4950000B6950000B8950000FF
:1001D8000000000000000000000000000000000017
:1001E8000000000000000000000000000000000007
:0801F8000000000000000000FF
:100200003D432A876373C3029377F700BDEFADE5E3
:10021000937606FF3D8ABA960CC34CC30CC74CC7F5
:100220004107E36BD7FE11E28280B306C3408A0622
:100230009702000096966780A6002307B700A306E2
:10024000B7002306B700A305B7002305B700A30432
:10025000B7002304B700A303B7002303B700A3022A
:10026000B7002302B700A301B7002301B700A30022
:10027000B7002300B700828093F5F50F93968500B1
:10028000D58D93960501D58D61B79396270097027A
:10029000000096968682E78086FA9680C1171D8FA9
:1002A0003E96E374C3F8A5B7797106D622D4001838
:1002B000232EA4FC8327C4FDB18393F7F70FBD8BD6
:1002C000A307F4FE8327C4FDA18393F7F70FBD8B2B
:1002D0002307F4FE0347F4FEB76700200A0793875D
:1002E0000782BA979C430347E4FE91460546BA85C8
:1002F0003E85EF90A05D0347F4FEB76700200A0734
:1003000093870782BA979C4385453E85EF90C057F7
:1003100001000347F4FEB76700200A0793870782AE
:10032000BA979C4389453E85EF90C07EAA87F5D356
:100330000347F4FEB76700200A0793870782BA973E
:100340009C43FC478346F4FE13878193369703470B
:100350000700B3D7E700C207C1833E85B2502254DD
:10036000456182805D7186C6A2C48008232EA4FAEE
:10037000232CB4FA232604FC232804FC232A04FC9F
:10038000232C04FC232E04FC232004FE232204FE41
:10039000232404FE8327C4FBB18393F7F70FBD8B9F
:1003A000A307F4FE8327C4FB93F7F70F81460146AA
:1003B00081453E85EF00D0198347F4FE99E78545D6
:1003C00013050020EF90107C19A80347F4FE854721
:1003D0006317F700854513050040EF90B07A01459B
:1003E000EF9030450347F4FEB76700200A07938774
:1003F0000782BA979C433E85EF90C024232604FCD5
:10040000232804FC232A04FCB7070E00232CF4FC49
:10041000232E04FC85472300F4FE0347F4FEB76750
:1004200000200A0793870782BA979C431307C4FCEE
:10043000BA853E85EF9000270347F4FEB76700209A
:100440000A0793870782BA979C4385453E85EF90BC
:1004500080350347F4FEB76700200A0793870782B9
:10046000BA979C4381453E85EF90606E0347F4FE4A
:10047000B76700200A0793870782BA979C433E8597
:10048000EF90403601000347F4FEB76700200A07EB
:1004900093870782BA979C433E85EF90C036AA8720
:1004A000FDF30347F4FEB76700200A07938707822E
:1004B000BA979C433E85EF90003801000347F4FE55
:1004C000B76700200A0793870782BA979C433E8547
:1004D000EF908038AA87FDF38346F4FE832784FBE0
:1004E00013F7F70F93878193B6972380E7000100F6
:1004F000B640264461618280011122CE001023267D
:10050000A4FE2324B4FEB1A0B7F700E023A00700A7
:10051000B7F700E0814501468CC7D0C7B7F700E0C8
:10052000054690C30100B7F700E003A8C7009C4749
:100530000326C4FEB2860147C2853A86636BB600C5
:10054000C2853A86E391C5FE3E86B68763E3C7005F
:10055000D9BF832784FE1386F7FF2324C4FECDF77B
:100560000100724405618280011106CE22CC001088
:10057000AA8E2E8E32833685BA853E86C2864687FF
:10058000F687A307F4FEF2872307F4FE9A87A306F3
:10059000F4FEAA872306F4FEAE87A305F4FEB28715
:1005A0002305F4FEB687A304F4FEBA872304F4FE01
:1005B0008347F4FE93068004014681453E85EF00A3
:1005C00020798347E4FE93068004014681453E85F9
:1005D000EF0000788347D4FE9306800401468145EE
:1005E0003E85EF00E0768347C4FE93068004014613
:1005F00081453E85EF00C0758347B4FE93068004B5
:10060000014681453E85A9278347A4FE93068004C1
:10061000014681453E852D2F834794FE9306800435
:10062000014681453E852D27834784FE930680043D
:10063000014681453E85292F834744009306800467
:10064000014681453E85292783470400930680049F
:10065000014681453E85ED2D834784009306800445
:10066000014681453E85ED250100F2406244056169
:100670008280011106CE22CC00102326A4FE232462
:10068000B4FEB28736872313F4FEBA872312F4FE32
:1006900085450965EF90B04AB707055083C7070045
:1006A00013F7F70FB70705501377F7FC1377F70F1A
:1006B0002380E700B707055083C7070013F7F70F3C
:1006C000B7070550136727041377F70F2380E70058
:1006D000B707055083C7170013F7F70FB707055083
:1006E000659B1377F70FA380E700B7070550035703
:1006F00044FE2392E700B7070550035764FE239397
:10070000E700B70705500327C4FE98C7B707055091
:10071000032784FED8C7B707055083C7170013F710
:10072000F70FB70705501377F7031377F70FA38079
:10073000E70037070550B707055003471700137741
:10074000F70FA380E700B707055083C7270013F70B
:10075000F70FB7070550136747001377F70F23818B
:10076000E700B707055083C7170013F7F70FB70760
:100770000550136717001377F70FA380E700B7073B
:10078000055083C7070013F7F70FB7070550136726
:1007900017001377F70F2380E7008D4513056005D9
:1007A000EF70505213056005EF70104E0100F240DB
:1007B000624405618280797106D622D40018232E06
:1007C000A4FC231704FE231604FE0327C4FDA5473B
:1007D00063E1E70C8327C4FD13972700B7B7020036
:1007E000938787FBBA979C438287B73701409387EB
:1007F00007C083D74702C207C1832317F4FE69A845
:10080000B707004083D74702C207C1832317F4FE0E
:1008100061A0B70700409387074083D74702C2070C
:10082000C1832317F4FE8DA8B71700409387078074
:1008300083D74702C207C1832317F4FEB1A8B717B5
:100840000040938707C083D74702C207C18323179D
:10085000F4FE99A0B73701409387074083D747023A
:10086000C207C1832317F4FE05A8B7570140938739
:1008700007C083D74702C207C1832317F4FE29A804
:10088000B757014083D74702C207C1832317F4FE3D
:1008900021A0231704FE0100B707002013870700DB
:1008A0008327C4FDBA9783C7070013F7F70F930791
:1008B000F00F6317F7008357E4FE2316F4FE2DA80C
:1008C000B7070020138707008327C4FDBA9783C7A3
:1008D000070093F7F70F3E851D29AA8791EB8357F1
:1008E000E4FEB307F040C207C1832316F4FE29A03B
:1008F0008357E4FE2316F4FE8317C4FE3E85B250F0
:10090000225445618280011122CE00102326A4FECC
:100910000327C4FEA54763E1E7088327C4FE1397B6
:100920002700B7B70200938707FEBA979C438287D8
:10093000B7370140938707C023920702B9A8B707CA
:1009400000402392070291A8B70700409387074011
:100950002392070299A0B71700409387078023923C
:10096000070225A8B7170040938707C02392070204
:100970002DA0B7370140938707402392070231A883
:10098000B7570140938707C02392070239A0B75792
:1009900001402392070211A0010001007244056189
:1009A0008280397106DE22DC80002326A4FC232409
:1009B000B4FC2322C4FC232604FE91450325C4FC79
:1009C000EF20200DAA873E871306100DB7A702005F
:1009D0009385472D3A85EF60D0218327C4FC139778
:1009E000C700832784FC7D8F8327C4FCB207B3072D
:1009F000F74093B7170093F7F70F3E871306200DC4
:100A0000B7A702009385472D3A85EF60901E832794
:100A1000C4FC1397C700832744FC7D8F8327C4FC45
:100A2000B207B307F74093B7170093F7F70F3E8766
:100A30001306300DB7A702009385472D3A85EF6066
:100A4000501B0325C4FCEF20200B832784FC93F765
:100A5000F70F93068004014681453E85D52C8327F8
:100A600044FC93F7F70F93068004014681453E85C9
:100A7000C524832784FC13F7F70FB707002093865C
:100A800007008327C4FCB6972380E7000327C4FC34
:100A9000A54763E1E7088327C4FC13972700B7B78E
:100AA000020093878700BA979C438287B73701403B
:100AB000938707C02324F4FE8DA0B70700402324AA
:100AC000F4FEA1A8B7070040938707402324F4FE53
:100AD000A9A0B7170040938707802324F4FE35A808
:100AE000B7170040938707C02324F4FE3DA0B73713
:100AF0000140938707402324F4FE05A0B757014027
:100B0000938707C02324F4FE09A8B7570140232484
:100B1000F4FE21A085472326F4FE85450545EF9088
:100B20007006832784FC13D787008D47631AF7006C
:100B30008545B70716001385070CEF900033E5A82D
:100B4000832784FC13D78700C547631AF7008545C0
:100B5000B707180013850710EF902031E9A8832705
:100B600084FC13D7870093072002631AF70085459A
:100B7000B7171A0013850780EF90202F6DA88327E1
:100B800084FC13D7870093073002631AF70085456A
:100B9000B7171A00138507C0EF90202D69A8832787
:100BA00084FC13D78700930710036317F70085456C
:100BB0000565EF90802B41A0832784FC13D7870025
:100BC00093071007631AF7008545B7070080138560
:100BD0004700EF90802985A0832784FC13D78700E6
:100BE00093073008631AF7008545B707138013850C
:100BF0000701EF90802781A0832784FC13D787000B
:100C000093071009631AF7008545B7071580138508
:100C10000702EF90802505A0832784FC13D7870067
:100C2000930730096319F7008545B70715801385C9
:100C30000704EF9080238327C4FEA9EB232E04FC36
:100C4000232004FE231204FE9307C4FD3E85EFA07B
:100C50004026231E04FCFD572310F4FE231104FE3E
:100C6000231F04FC230204FE9307C4FDBE85032555
:100C700084FEEF90301F93050006032584FEEFA04D
:100C800080398545032584FEEFA060260100F250DF
:100C9000625421618280011122CE00102326A4FE1D
:100CA000AE87A305F4FE8347B4FE85CB8327C4FE3D
:100CB000BD8B0547B317F70093960701C1828327C1
:100CC000C4FE13D75700B70700200A079387C70051
:100CD000BA979C43368798CB3DA08327C4FEBD8B33
:100CE0000547B317F70093960701C1828327C4FE17
:100CF00013D75700B70700200A079387C700BA9792
:100D00009C433687D8CB0100724405618280011173
:100D100022CE00102326A4FE8327C4FE958313F75A
:100D20007700B70700200A079387C700BA979C434C
:100D30009C470327C4FE7D8B85463397E600F98FD9
:100D4000B337F00093F7F70F3E8572440561828058
:100D5000797106D622D40018232EA4FC232CB4FCCF
:100D6000B2872328D4FCA30BF4FC232004FE232207
:100D700004FE232404FE8327C4FD958393F7F70F15
:100D80009D8BA307F4FE8327C4FD93F7F70FFD8B1C
:100D90002307F4FE8347F4FE91E785451145EF9064
:100DA000605E91A80347F4FE85476317F700854509
:100DB0002145EF90205D81A00347F4FE894763172A
:100DC000F70085454145EF90E05B35A00347F4FE11
:100DD0008D476318F700854513050002EF90805A90
:100DE00019A80347F4FE91476317F70085451305DB
:100DF0000004EF9020598347E4FE0547B317F7003E
:100E0000C207C1832310F4FE032784FD85476317BF
:100E1000F702832704FDC207C183A183C207C183F0
:100E200089E78D472322F4FE11A8832704FDC2071A
:100E3000C183A183C207C1832322F4FE832704FD5B
:100E4000C207C18393F7F70F2324F4FE0347F4FE90
:100E5000B70700200A079387C700BA979C43130778
:100E600004FEBA853E85EF80305A032784FD85470E
:100E70006319F7020347F4FEB70700200A079387B8
:100E8000C700BA9794438347E4FE0547B317F700BA
:100E9000C207C183034774FD3A86BE853685EF805D
:100EA00050790100B2502254456182801D7186CE76
:100EB000A2CC80102326A4FA2324B4FA8545032566
:100EC000C4FAEF10103DAA873E871306D006B7A7D5
:100ED0000200938547353A85EF60A051832784FA55
:100EE000B337F00093F7F70F3E871306F006B7A766
:100EF0000200938547353A85EF60A04F832784FA37
:100F0000BD832315F4FE8357A4FE85073E87832700
:100F100084FAB3D7E7022314F4FE0325C4FAEF10D2
:100F2000B03DB7370140938707C02326F4FE03275F
:100F3000C4FAA54763EDE7088327C4FA139727008F
:100F4000B7B7020093870703BA979C438287B737E6
:100F50000140938707C02326F4FE95A8B7070040F9
:100F60002326F4FEADA0B707004093870740232651
:100F7000F4FEB1A8B7170040938707802326F4FE3C
:100F8000B9A0B7170040938707C02326F4FE81A0BD
:100F9000B71700402326F4FE1DA8B717004093871B
:100FA00007402326F4FE25A0B7370140938707406A
:100FB0002326F4FE29A8B7570140938707C02326AC
:100FC000F4FE31A0B75701402326F4FE0100232E82
:100FD00004FC232004FE231204FE835784FE231006
:100FE000F4FE8357A4FE231EF4FC231104FE231FEA
:100FF00004FC230204FE9307C4FDBE850325C4FE42
:10100000EF904066054685450325C4FEEF90B07914
:1010100085450325C4FEEFA04039B7A7020003AE03
:10102000C7321387C732032347001387C732832889
:1010300087001387C7320328C7001387C732084BBE
:101040001387C7324C4B1387C732104F1387C732F1
:10105000544F1387C73218539387C732DC53232A60
:10106000C4FB232C64FA232E14FB232004FD23222B
:10107000A4FC2324B4FC2326C4FC2328D4FC232A68
:10108000E4FC232CF4FC8327C4FA93F7F70F8A07B8
:10109000130704FFBA9783A747FC8D453E85EF7081
:1010A00060428327C4FA8A07130704FFBA9783A70D
:1010B00047FC3E85EF70403D85450325C4FEEF901B
:1010C00010630100F640664425618280797106D67E
:1010D00022D40018232EA4FC232CB4FC032784FD67
:1010E000896793871771B337F70093F7F70F3E8738
:1010F00013065003B7A702009385873A3A85EF603D
:10110000402FB7370140938707C02326F4FE83277B
:10111000C4FDC183BD8B2547636FF7061397270076
:10112000B7B7020093878705BA979C438287B73782
:101130000140938707C02326F4FEB1A8B7070040FB
:101140002326F4FE89A8B70700409387074023268B
:10115000F4FE91A0B7170040938707802326F4FE82
:101160001DA8B7170040938707C02326F4FE25A0CB
:10117000B7370140938707402326F4FE29A8B757C5
:101180000140938707C02326F4FE31A0B7570140E2
:101190002326F4FE01008327C4FE83D7C70223154C
:1011A000F4FE0357A4FE832784FD3307F702896703
:1011B00093870771B357F7022314F4FE8327C4FD06
:1011C000A1838D8B81EB8327C4FE035784FE239A72
:1011D000E702A9A88327C4FDA18313F73700854739
:1011E0006319F7008327C4FE035784FE239CE7029C
:1011F00035A88327C4FDA18313F7370089476319F6
:10120000F7008327C4FE035784FE239EE70239A814
:101210008327C4FDA18313F737008D476318F700B8
:101220008327C4FE035784FE2390E7040100B250D5
:101230002254456182805D7186C6A2C48008232E37
:10124000A4FA232CB4FA232AC4FA8327C4FBC1834B
:101250008D453E85EF10F003AA873E871306D00A1E
:10126000B7A702009385873A3A85EF608018032775
:1012700044FB896793871771B337F70093F7F70F2C
:101280003E871306F00AB7A702009385873A3A858E
:10129000EF602016232E04FC232004FE231204FEFC
:1012A000232604FC232804FC232A04FC232C04FC0E
:1012B000231504FE8327C4FBC183BD8B3E85EF103D
:1012C000B0038327C4FB93F7F70F930680310146E1
:1012D00085453E85B53C85450545EF90A00AB73765
:1012E0000140938707C02326F4FE8327C4FBC183F4
:1012F000BD8B2547636FF70613972700B7B702002A
:1013000093870708BA979C438287B7370140938732
:1013100007C02326F4FEB1A8B70700402326F4FE39
:1013200089A8B7070040938707402326F4FE91A0C1
:10133000B7170040938707802326F4FE1DA8B71730
:101340000040938707C02326F4FE25A0B73701404D
:10135000938707402326F4FE29A8B75701409387B7
:1013600007C02326F4FE31A0B75701402326F4FE20
:1013700001008327C4FB13D7C7008D47631AF7000A
:101380008545B70716001385070CEF80102E15AAA8
:101390008327C4FB13D7C700C547631AF7008545E9
:1013A000B707180013850710EF80302C19AA832780
:1013B000C4FB13D7C700C947631AF7008545B707B1
:1013C000180013850720EF80502AE5A88327C4FB67
:1013D00013D7C700CD47631AF7008545B707180034
:1013E00013850730EF807028E9A88327C4FB13D743
:1013F000C70093072002631AF7008545B7171A0044
:1014000013850780EF8070266DA88327C4FB13D750
:10141000C70093073002631AF7008545B7171A0013
:10142000138507C0EF80702469A88327C4FB13D7F6
:10143000C700930710036317F70085450565EF8024
:10144000D02241A08327C4FB13D7C70093071007FE
:10145000631AF7008545B707008013854700EF80C2
:10146000D02085A08327C4FB13D7C700930730087B
:10147000631AF7008545B707138013850701EF80CE
:10148000D01E81A08327C4FB13D7C7009307100980
:10149000631AF7008545B707158013850702EF80AB
:1014A000D01C05A08327C4FB13D7C70093073009BE
:1014B0006319F7008545B707158013850704EF808A
:1014C000D01A03A74182832784FBB357F702C18355
:1014D0002315F4FE03A741828357A4FE8507BE8629
:1014E000832784FBB387F602B357F7022314F4FE75
:1014F000035784FE832744FB3307F70289679387EA
:101500000771B357F7022313F4FE835784FEFD17C8
:10151000C207C1832310F4FE8357A4FE231EF4FCEC
:10152000231104FE231F04FC230204FE9307C4FDC1
:10153000BE850325C4FEEF90E01293070007231633
:10154000F4FC85472317F4FC231804FC835764FE3E
:101550002319F4FC8947231AF4FC8947231BF4FC64
:10156000231C04FC231D04FC8327C4FBA1838D8B57
:101570009DE39307C4FCBE850325C4FEEF9060265F
:10158000A1450325C4FEEF90503291450325C4FECA
:10159000EF90704645A08327C4FBA18313F7370063
:1015A00085476315F7029307C4FCBE850325C4FE77
:1015B000EF90E03CA1450325C4FEEF90D0339305A6
:1015C00000400325C4FEEF90D047ADA08327C4FBA5
:1015D000A18313F7370089476314F7029307C4FC0C
:1015E000BE850325C4FEEF90A057A1450325C4FE88
:1015F000EF90103691450325C4FEEF90F0491DA8E9
:101600008327C4FBA18313F737008D476314F702C8
:101610009307C4FCBE850325C4FEEF902072A1454C
:101620000325C4FEEF909037930500400325C4FEC8
:10163000EF90504B85450325C4FEEF90D0108545B3
:101640000325C4FEEF90B00A0100B6402644616154
:101650008280797106D622D40018232EA4FC832719
:10166000C4FDB337F00093F7F70F3E87130610045D
:10167000B7A702009385C73F3A85EF50905783275D
:10168000C4FD9C43BD8B0547B317F7009396070134
:10169000C1828327C4FD9C4313D75700B70700209E
:1016A0000A079387C700BA979C43368798CB83274E
:1016B000C4FDDC43BD8B0547B317F70093960701C4
:1016C000C1828327C4FDDC4313D75700B70700202E
:1016D0000A079387C700BA979C43368798CB83271E
:1016E000C4FDDC472326F4FE01008327C4FE1387D4
:1016F000F7FF2326E4FEF5FB8327C4FDDC43BD8B07
:101700000547B317F70093960701C1828327C4FDED
:10171000DC4313D75700B70700200A079387C70099
:10172000BA979C433687D8CB8327C4FDDC47232454
:10173000F4FE0100832784FE1387F7FF2324E4FED1
:10174000F5FB8327C4FD9C43BD8B0547B317F7000A
:1017500093960701C1828327C4FD9C4313D757008A
:10176000B70700200A079387C700BA979C433687BC
:10177000D8CB0100B250225445618280797106D6DF
:1017800022D40018232EA4FC8327C4FDB337F00015
:1017900093F7F70F3E8713064005B7A7020093851E
:1017A000C73F3A85EF50F0448327C4FDDC43BD8B2F
:1017B0000547B317F70093960701C1828327C4FD3D
:1017C000DC4313D75700B70700200A079387C700E9
:1017D000BA979C433687D8CB8327C4FD9C43BD8BE7
:1017E0000547B317F70093960701C1828327C4FD0D
:1017F0009C4313D75700B70700200A079387C700F9
:10180000BA979C433687D8CB8327C4FDDC47232671
:10181000F4FE01008327C4FE1387F7FF2326E4FEAE
:10182000F5FB8327C4FD9C43BD8B0547B317F70029
:1018300093960701C1828327C4FD9C4313D75700A9
:10184000B70700200A079387C700BA979C433687DB
:1018500098CB8327C4FDDC472324F4FE01008327B3
:1018600084FE1387F7FF2324E4FEF5FB8327C4FDE2
:10187000DC43BD8B0547B317F70093960701C18280
:101880008327C4FDDC4313D75700B70700200A079E
:101890009387C700BA979C43368798CB8327C4FDAC
:1018A000DC472322F4FE0100832744FE1387F7FF61
:1018B0002322E4FEF5FB0100B250225445618280F0
:1018C000797106D622D40018232EA4FCAE87A30D6E
:1018D000F4FC8327C4FDB337F00093F7F70F3E877E
:1018E00013069006B7A702009385C73F3A85EF50CD
:1018F00050308327C4FD9C43BD8B0547B317F700C9
:1019000093960701C1828327C4FD9C4313D75700D8
:10191000B70700200A079387C700BA979C4336870A
:10192000D8CB8347B4FD95CB8327C4FDDC43BD8B67
:101930000547B317F70093960701C1828327C4FDBB
:10194000DC4313D75700B70700200A079387C70067
:10195000BA979C43368798CB0DA88327C4FDDC43F8
:10196000BD8B0547B317F70093960701C182832704
:10197000C4FDDC4313D75700B70700200A0793873D
:10198000C700BA979C433687D8CB8327C4FDDC4772
:101990002326F4FE01008327C4FE1387F7FF2326C6
:1019A000E4FEF5FB8327C4FD9C43BD8B0547B317BD
:1019B000F70093960701C1828327C4FD9C4313D788
:1019C0005700B70700200A079387C700BA979C43C0
:1019D000368798CB8327C4FDDC472324F4FE01001F
:1019E000832784FE1387F7FF2324E4FEF5FB832778
:1019F000C4FD9C43BD8B0547B317F70093960701C1
:101A0000C1828327C4FD9C4313D75700B70700202A
:101A10000A079387C700BA979C433687D8CB83279A
:101A2000C4FDDC43BD8B0547B317F7009396070150
:101A3000C1828327C4FDDC4313D75700B7070020BA
:101A40000A079387C700BA979C43368798CB010053
:101A5000B250225445618280797106D622D4001892
:101A6000232EA4FC8327C4FDB337F00093F7F70FB0
:101A70003E8713065008B7A702009385C73F3A85F3
:101A8000EF503017A30704FE8327C4FD9C43BD8B92
:101A90000547B317F70093960701C1828327C4FD5A
:101AA0009C4313D75700B70700200A079387C70046
:101AB000BA979C433687D8CB8327C4FDDC43BD8BC4
:101AC0000547B317F70093960701C1828327C4FD2A
:101AD000DC4313D75700B70700200A079387C700D6
:101AE000BA979C43368798CB8327C4FDDC472324D1
:101AF000F4FE0100832784FE1387F7FF2324E4FE0E
:101B0000F5FB8327C4FD9C43BD8B0547B317F70046
:101B100093960701C1828327C4FD9C4313D75700C6
:101B2000B70700200A079387C700BA979C433687F8
:101B300098CB8327C4FDDC472322F4FE01008327D2
:101B400044FE1387F7FF2322E4FEF5FB8327C4FD41
:101B5000DC433E85EFF0AF9BAA8781C78547A3078B
:101B6000F4FE8327C4FD9C43BD8B0547B317F700E4
:101B700093960701C1828327C4FD9C4313D7570066
:101B8000B70700200A079387C700BA979C43368798
:101B9000D8CB8327C4FDDC472320F4FE0100832734
:101BA00004FE1387F7FF2320E4FEF5FB8347F4FED2
:101BB0003E85B250225445618280797106D622D486
:101BC0000018232EA4FCAE87A30DF4FC8327C4FDCC
:101BD000B337F00093F7F70F3E871306700AB7A7E5
:101BE00002009385C73F3A85EF50B000930700F895
:101BF000A307F4FE09AA0347B4FD8347F4FEF98F57
:101C000093F7F70F95CB8327C4FDDC43BD8B0547C6
:101C1000B317F70093960701C1828327C4FDDC4305
:101C200013D75700B70700200A079387C700BA9752
:101C30009C43368798CB0DA88327C4FDDC43BD8B1E
:101C40000547B317F70093960701C1828327C4FDA8
:101C5000DC4313D75700B70700200A079387C70054
:101C6000BA979C433687D8CB8347F4FE8583A30776
:101C7000F4FE8327C4FDDC472324F4FE0100832700
:101C800084FE1387F7FF2324E4FEF5FB8327C4FDBE
:101C90009C43BD8B0547B317F70093960701C1829C
:101CA0008327C4FD9C4313D75700B70700200A07BA
:101CB0009387C700BA979C43368798CB8327C4FD88
:101CC000DC472322F4FE0100832744FE1387F7FF3D
:101CD0002322E4FEF5FB8327C4FD9C43BD8B05470F
:101CE000B317F70093960701C1828327C4FD9C4375
:101CF00013D75700B70700200A079387C700BA9782
:101D00009C433687D8CB8347F4FEE39607EE032542
:101D1000C4FD9933AA87FD17B337F00093F7F70F87
:101D20003E85B250225445618280397106DE22DC44
:101D300026DA80002326A4FCAE87A305F4FC8327C3
:101D4000C4FCB337F00093F7F70F3E871306000C7F
:101D5000B7A702009385C73F3A85EF508069A30774
:101D600004FEA1472307F4FE8327C4FC9C43BD8BDC
:101D70000547B317F70093960701C1828327C4FC78
:101D80009C4313D75700B70700200A079387C70063
:101D9000BA979C433687D8CB8327C4FCDC472324DF
:101DA000F4FE0100832784FE1387F7FF2324E4FE5B
:101DB000F5FB8327C4FCDC43BD8B0547B317F70055
:101DC00093960701C1828327C4FCDC4313D75700D5
:101DD000B70700200A079387C700BA979C43368746
:101DE00098CB7DA88327C4FC9C43BD8B0547B317C4
:101DF000F70093960701C1828327C4FC9C4313D745
:101E00005700B70700200A079387C700BA979C437B
:101E10003687D8CB8327C4FCDC472322F4FE01009D
:101E2000832744FE1387F7FF2322E4FEF5FB832775
:101E3000C4FC9C43BD8B0547B317F700939607017D
:101E4000C1828327C4FC9C4313D75700B7070020E7
:101E50000A079387C700BA979C43368798CB832796
:101E6000C4FCDC472320F4FE0100832704FE138713
:101E7000F7FF2320E4FEF5FB8347F4FE86079394E7
:101E80008701E1848327C4FCDC433E85EFE03FE823
:101E9000AA87E207E187C58FE207E187A307F4FE7F
:101EA0008347E4FE1387F7FF2307E4FE85FF8327BC
:101EB000C4FC9C43BD8B0547B317F70093960701FD
:101EC000C1828327C4FC9C4313D75700B707002067
:101ED0000A079387C700BA979C433687D8CB8327D6
:101EE000C4FCDC47232EF4FC01008327C4FD1387C8
:101EF000F7FF232EE4FCF5FB8347B4FCBE850325E6
:101F0000C4FCEFF0FF9B8347F4FE3E85F250625421
:101F1000D25421618280011106CE22CC00102326EA
:101F2000A4FE2324B4FE2322C4FE8327C4FEB337B9
:101F3000F00093F7F70F3E871306700FB7A7020064
:101F40009385C73F3A85EF50C04A832784FEB33755
:101F5000F00093F7F70F3E871306800FB7A7020034
:101F60009385C73F3A85EF50C0480325C4FEEFF084
:101F70004FEE8327C4FE83C78700860793F7F70FCA
:101F8000BE850325C4FE153929A8832784FE13873F
:101F900017002324E4FE83C70700BE850325C4FE83
:101FA0002939832744FE1387F7FF2322E4FEF1FF3C
:101FB0000325C4FEEFF08FFC0100F240624405618E
:101FC0008280011106CE22CC00102326A4FEAE870B
:101FD0003287A305F4FEBA872305F4FE8327C4FEE7
:101FE000B337F00093F7F70F3E8713066013B7A7D8
:101FF00002009385C73F3A85EF50A03F0325C4FEFA
:10200000EFF02FE58327C4FE83C78700860793F789
:10201000F70FBE850325C4FE4D368347B4FEBE854B
:102020000325C4FE593E8347A4FEBE850325C4FE96
:1020300069360325C4FEEFF06FF40100F2406244FC
:1020400005618280797106D622D40018232EA4FC63
:10205000AE87A30DF4FC8327C4FDB337F00093F7DC
:10206000F70F3E871306401EB7A702009385C73FB0
:102070003A85EF500038A30704FE0325C4FDEFF0B6
:102080004FDD8327C4FD83C78700860793F7F70FCB
:10209000BE850325C4FD15368347B4FDBE850325E3
:1020A000C4FD213E0325C4FDEFF0AFDA8327C4FD54
:1020B00083C787008607E207E18793E71700E207F7
:1020C000E18793F7F70FBE850325C4FDFD348545F1
:1020D0000325C4FD9939AA87A307F4FE0325C4FD8F
:1020E000EFF0CFE98347F4FE3E85B25022544561BC
:1020F0008280011106CE22CC26CA00102326A4FE1F
:10210000AE872322C4FE2320D4FEA305F4FE83273A
:10211000C4FEB337F00093F7F70F3E871306C01FD6
:10212000B7A702009385C73F3A85EF50802C8327DD
:1021300044FEB337F00093F7F70F3E871306D01F26
:10214000B7A702009385C73F3A85EF50802A032541
:10215000C4FEEFF00FD08327C4FE83C78700860735
:1021600093F7F70FBE850325C4FE813C8347B4FE79
:10217000BE850325C4FEEFF05FA40325C4FEEFF087
:102180004FCD8327C4FE83C787008607E207E18718
:1021900093E71700E207E18793F7F70FBE85032562
:1021A000C4FEEFF09FA12DA0832704FE93B7170074
:1021B00093F7F70F3E87832444FE9387140023226E
:1021C000F4FEBA850325C4FE8D36AA872380F40069
:1021D000832704FE1387F7FF2320E4FEF1F703258E
:1021E000C4FEEFF0AFD90100F2406244D244056171
:1021F0008280011106CE22CC00102326A4FEAE87D9
:102200003287A305F4FEBA872305F4FE8327C4FEB4
:10221000B337F00093F7F70F3E871306B028B7A740
:1022200002009385C73F3A85EF50A01C0325C4FEEA
:10223000EFF02FC28327C4FE83C78700860793F77A
:10224000F70FBE850325C4FEEFF03F978347B4FE2A
:10225000BE850325C4FEEFF05F968347A4FEBE85CE
:102260000325C4FEEFF07F950325C4FEEFF00FD1E8
:102270000100F240624405618280797106D622D461
:102280000018232EA4FCAE87A30DF4FC8327C4FD05
:10229000B337F00093F7F70F3E871306D029B7A79F
:1022A00002009385C73F3A85EF50A014A30704FEB0
:1022B0000325C4FDEFF0EFB98327C4FD83C7870072
:1022C000860793F7F70FBE850325C4FDEFF0FF8E59
:1022D0008347B4FDBE850325C4FDEFF01F8E0325A3
:1022E000C4FDEFF0AFC90325C4FDEFF08FB683271F
:1022F000C4FD83C787008607E207E18793E71700DD
:10230000E207E18793F7F70FBE850325C4FDEFF0E1
:10231000DF8A85450325C4FDEFF03FA1AA87A30707
:10232000F4FE0325C4FDEFF06FC58347F4FE3E8540
:10233000B250225445618280797106D622D40018A9
:102340002326A4FEAE872322C4FE2320D4FE232E00
:10235000E4FCA305F4FE8327C4FEB337F00093F733
:10236000F70F3E871306802BB7A702009385C73F60
:102370003A85EF500008032704FE8327C4FDB30706
:10238000F740B337F00093F7F70F3E871306902B13
:10239000B7A702009385C73F3A85EF508005832792
:1023A000C4FE032704FE98C38327C4FE0327C4FD8D
:1023B000D8C38327C4FE0347B4FE2384E7008327E2
:1023C000C4FE032744FED8C7C146054685450325FC
:1023D00004FEEFE0FF97D146054685450325C4FD81
:1023E000EFE01F970100B250225445618280011135
:1023F00022CE00102326A4FEAE87A305F4FEB7B7B5
:1024000002000327C4FE0A079387870ABA979C43F2
:102410003E878347B4FEC207C1832316F70001003D
:10242000B7B702000327C4FE0A079387870ABA9743
:102430009C4383D78700C207C18393F70708EDF356
:10244000B7B702000327C4FE0A079387870ABA9723
:102450009C4383D7C700010072440561828001114B
:1024600022CE00102326A4FEAE872315F4FE835748
:10247000A4FEA183C207C18393F6F70FB7B702008A
:102480000327C4FE0A079387870ABA979C433E87AF
:1024900093970601C1832316F7000100B7B7020026
:1024A0000327C4FE0A079387870ABA979C4383D7FA
:1024B0008700C207C18393F70708EDF38357A4FE93
:1024C00093F6F70FB7B702000327C4FE0A079387F6
:1024D000870ABA979C433E8793970601C1832316C8
:1024E000F7000100B7B702000327C4FE0A0793876D
:1024F000870ABA979C4383D78700C207C18393F7A3
:102500000708EDF30100724405618280011122CEBB
:1025100000102326A4FEAE873287A305F4FEBA87F7
:102520002305F4FEB7B702000327C4FE0A0793870A
:10253000870ABA979C433E878347B4FEC207C1838C
:102540002316F7000100B7B702000327C4FE0A07ED
:102550009387870ABA979C4383D78700C207C183B2
:1025600093F70708EDF3B7B702000327C4FE0A0785
:102570009387870ABA979C4383D7C700B7B70200EF
:102580000327C4FE0A079387870ABA979C433E87AE
:102590008347A4FEC207C1832316F7000100B7B723
:1025A00002000327C4FE0A079387870ABA979C4351
:1025B00083D78700C207C18393F70708EDF3B7B746
:1025C00002000327C4FE0A079387870ABA979C4331
:1025D00083D7C7000100724405618280797122D6D9
:1025E0000018232EA4FCAE87A30DF4FCB7B702009D
:1025F0000327C4FD0A079387870ABA979C433E873F
:102600008347B4FDC207C1832316F7000100B7B7A3
:1026100002000327C4FD0A079387870ABA979C43E1
:1026200083D78700C207C18393F70708EDF3B7B7D5
:1026300002000327C4FD0A079387870ABA979C43C1
:1026400083D7C700B7B702000327C4FD0A079387E3
:10265000870ABA979C433E8789472316F7000100F3
:10266000B7B702000327C4FD0A079387870ABA9702
:102670009C4383D78700C207C18393F70708EDF314
:10268000B7B702000327C4FD0A079387870ABA97E2
:102690009C4383D7C700C207C183A307F4FE8347C7
:1026A000F4FE3E85325445618280011122CE001035
:1026B0002326A4FEAE872322C4FE2320D4FEA30536
:1026C000F4FEB7B702000327C4FE0A079387870A00
:1026D000BA979C433E878347B4FEC207C183231643
:1026E000F7000100B7B702000327C4FE0A0793876B
:1026F000870ABA979C4383D78700C207C18393F7A1
:102700000708EDF3B7B702000327C4FE0A07938753
:10271000870ABA979C4383D7C700ADA0B7B702001A
:102720000327C4FE0A079387870ABA979C43239618
:1027300007000100B7B702000327C4FE0A0793870A
:10274000870ABA979C4383D78700C207C18393F750
:102750000708EDF3B7B702000327C4FE0A07938703
:10276000870ABA979C4383D7C70093960701C18213
:10277000832744FE138717002322E4FE13F7F60F86
:102780002380E700832704FE1387F7FF2320E4FE5E
:10279000D1F701007244056182805D7186C6A2C4D2
:1027A00080082326A4FC2324B4FC2322C4FC232079
:1027B000D4FC232EE4FA232CF4FA232A04FBB7B723
:1027C00002000327C4FC0A079387870ABA979C4331
:1027D0003E85EF70B04C85450545EF70B03A032754
:1027E00004FC930730126313F702032784FB93075B
:1027F0004012631DF7000327C4FB930750126317B1
:10280000F70085450545EF7040661DA8032704FCC9
:1028100089679387A7146315F702032784FB8967E9
:102820009387B714631EF7000327C4FB8967938758
:10283000C7146317F700854537152000EF70E06275
:102840008327C4FC91E785450565EF70B03325A06B
:102850000327C4FC85476317F70085451165EF70B2
:10286000D03611A80327C4FC89476316F7008545B5
:102870002165EF709035832704FC93F7F70F9306DB
:102880008031054685453E85EFE08FCC8327C4FB2C
:1028900093F7F70F93068031054685453E85EFE0B7
:1028A0002FCB032784FBC167F917630DF70083273C
:1028B00084FB93F7F70F93068034054681453E85E8
:1028C000EFE00FC9032744FB9307F00F630DF700F8
:1028D000832744FB93F7F70F9306003101468545A4
:1028E0003E85EFE0EFC6232E04FC232004FE2322C6
:1028F00004FE232404FE231604FE231E04FC930777
:102900004010231FF4FC231004FE032784FC85479A
:102910006305F702832784FC81CF032784FC894762
:102920006303F702032784FC8D476304F7020DA8B5
:10293000231104FE231204FE25A0231104FE854763
:102940002312F4FE31A889472311F4FE231204FE5A
:1029500001A889472311F4FE85472312F4FE0100E4
:10296000231704FE03A74182832744FCB357F702D1
:102970002317F4FE03A74182832744FCB377F702B1
:1029800091E78357E4FEFD172317F4FE0357E4FE97
:102990009307F00763F7E700930780032317F4FE1C
:1029A00051A80357E4FE9307F00363F7E70093078A
:1029B00000032317F4FEBDA80357E4FEFD4763F7A9
:1029C000E700930780022317F4FEADA00357E4FE4F
:1029D000BD4763F7E700930700022317F4FE99A8A9
:1029E0000357E4FE9D4763F6E700E1472317F4FE33
:1029F00091A00357E4FE8D4763F6E700C147231714
:102A0000F4FE0DA80357E4FE854763F6E700A147EF
:102A10002317F4FE05A08357E4FE81C7231704FEA5
:102A200011A813067021B7A70200938587450145B9
:102A3000EF40301C8357E4FE2314F4FE930700207C
:102A40002313F4FE231504FE9D472316F4FEB7B7A7
:102A500002000327C4FC0A079387870ABA979C439E
:102A60003E879307C4FDBE853A85EF70902AB7B7BD
:102A700002000327C4FC0A079387870ABA979C437E
:102A800085453E85EF7070380100B640264461618F
:102A90008280797122D60018232EA4FC232CB4FC4A
:102AA0008547A307F4FE0327C4FD0A07938781B572
:102AB000BA979C4399EB0327C4FD0A07938781B516
:102AC000BA97032784FD98C315A00327C4FD0A07FE
:102AD000938781B5BA979C43032784FD6316F7005B
:102AE0008547A307F4FE19A0A30704FE8347F4FE5D
:102AF0003E85325445618280011106CE22CC001001
:102B00002326A4FE8327C4FE81EB854585671385B4
:102B10000780EF7030076DA80327C4FE8547631751
:102B2000F70085450545EF70500A5DA00327C4FEF8
:102B300089476317F70085450945EF70100949A8D3
:102B40000327C4FE8D476317F70085451145EF70D5
:102B5000D007BDA80327C4FE91476317F70085453A
:102B60002145EF709006ADA00327C4FE954763177B
:102B7000F70085454145EF70500599A80327C4FE2D
:102B800099476318F700854513050002EF70F003BD
:102B900081A00327C4FE9D476317F700854509659B
:102BA000EF70407E35A00327C4FEA1476318F700ED
:102BB000854537050800EF70E07C19A80327C4FE9F
:102BC000A5476317F700854537051000EF70807B38
:102BD0000100F240624405618280797122D60018BA
:102BE000232EA4FCB7370140938707C02326F4FEA9
:102BF000231504FE0327C4FDA54763EDE7088327DB
:102C0000C4FD13972700B7B702009387470BBA9705
:102C10009C438287B7370140938707C02326F4FE81
:102C200095A8B70700402326F4FEADA0B7070040E3
:102C3000938707402326F4FEB1A8B7170040938777
:102C400007802326F4FEB9A0B7170040938707C07A
:102C50002326F4FE81A0B71700402326F4FE1DA80A
:102C6000B7170040938707402326F4FE25A0B73707
:102C70000140938707402326F4FE29A8B757014057
:102C8000938707C02326F4FE31A0B75701402326BF
:102C9000F4FE01000327C4FD0A07938701B8BA9721
:102CA00098438947631FF7008327C4FE83D74702F1
:102CB0001397070141838D47B357F7022315F4FE9D
:102CC00039A08327C4FE83D747022315F4FE835718
:102CD000A4FE3E85325445618280797122D6001867
:102CE000232EA4FCB7370140938707C02326F4FEA8
:102CF0000327C4FDA54763EDE7088327C4FD1397A9
:102D00002700B7B702009387C70DBA979C43828705
:102D1000B7370140938707C02326F4FE95A8B7076D
:102D200000402326F4FEADA0B7070040938707407C
:102D30002326F4FEB1A8B717004093870780232607
:102D4000F4FEB9A0B7170040938707C02326F4FE0E
:102D500081A0B71700402326F4FE1DA8B717004036
:102D6000938707402326F4FE25A0B73701409387B9
:102D700007402326F4FE29A8B7570140938707C0D0
:102D80002326F4FE31A0B75701402326F4FE0100AC
:102D90008327C4FE239207020100325445618280DA
:102DA000011122CE00102326A4FEAE87A305F4FE57
:102DB0000100B7B702000327C4FE0A079387471034
:102DC000BA979C4383D70700C207C18393F70708CC
:102DD000EDD3B7B702000327C4FE0A079387471055
:102DE000BA979C433E878347B4FEC207C183231230
:102DF000F7000100724405618280011106CE22CCE9
:102E000000102326A4FE2324B4FE2322C4FE83271D
:102E100084FEB337F00093F7F70F3E8713061004D4
:102E2000B7A702009385C74A3A85EF40805C29A87E
:102E3000832784FE138717002324E4FE83C707003B
:102E4000BE850325C4FEA93F832744FE1387F7FFF1
:102E50002322E4FEF1FF0100F2406244056182801A
:102E6000011106CE22CC00102326A4FE2324B4FE9A
:102E7000832784FEB337F00093F7F70F3E871306DE
:102E80000005B7A702009385C74A3A85EF40605610
:102E900039A8832784FE138717002324E4FE838741
:102EA000070093F7F70FBE850325C4FED53D8327A2
:102EB00084FE83870700F1FF0100F2406244056150
:102EC0008280011106CE22CC00102326A4FEAE87FC
:102ED000A305F4FEB7B702000327C4FE0A079387D1
:102EE0004710BA979C433E878347B4FE3E869305BE
:102EF00050523A85EF808077138741928327C4FE32
:102F0000BA9783C7070081453E85EF50A05B834792
:102F1000B4FE81CF138741928327C4FEBA9783C73B
:102F200007003E85EF50405619A81387419283272A
:102F3000C4FEBA9783C707003E85EF50C056010014
:102F4000F240624405618280011122CE00102326E6
:102F5000A4FE2324B4FEB7B702000327C4FE0A0769
:102F600093874710BA979C4383D70700C207C18352
:102F700093F7070295C7B7B702000327C4FE0A07F5
:102F800093874710BA979C4383D74700C207C183F2
:102F900013F7F70F832784FE2380E700854711A0EE
:102FA00081473E85724405618280797106D622D4BC
:102FB0000018232EA4FC232CB4FC232AC4FC2328B1
:102FC000D4FC032744FD832704FD3D8F8327C4FDE4
:102FD000B207F98F93B7170093F7F70F3E871306E1
:102FE000A00AB7A702009385C74A3A85EF40604020
:102FF000832744FD13D78700832704FDA183B307EC
:10300000F74093B7170093F7F70F3E871306B00A00
:10301000B7A702009385C74A3A85EF40803D8327D2
:1030200044FD93F7F70FE146014685453E85EFD015
:103030003FD2832704FD93F7F70F930680040146E0
:1030400081453E85EFD0DFD085450545EF70803363
:10305000032744FDC167FD17F98F0D671307073874
:103060006385E7200D67130707386369F704056771
:10307000130757166381E716056713075716636F23
:10308000F7001307F022638AE70C130760306381AF
:10309000E710130760126388E70855A6096713074E
:1030A0008736638AE7160D67130707126385E718EB
:1030B00009671307A7146380E71451A61567130760
:1030C000A738638CE72615671307A7386362F702F2
:1030D000116713078738638EE71E1567130787127A
:1030E0006383E722116713074712638AE71A81AEE9
:1030F00019671307C7386386E72A19671307C738A4
:103100006368F7001967130767106382E72605AE47
:103110001D671307E7106380E72C1D671307E73867
:103120006385E72E29AEB7070140D44FB7070140AA
:10313000370700FC7D17758FD8CFB7070140D843FC
:10314000B70701406D9BD8C3B7070140D843B70705
:10315000014013674700D8C3DDA4B7070140D44F2F
:10316000B7070140370700FC7D17758FD8CFB70729
:103170000140D44FB707014037070004558FD8CF1F
:10318000B7070140D843B70701406D9BD8C345AC92
:10319000B7070140D44FB7070140370700FC7D1740
:1031A000758FD8CFB7070140D44FB7070140370715
:1031B0000004558FD8CFB7070140D843B707014067
:1031C0006D9BD8C3B7070140D843B70701401367C9
:1031D0004700D8C3ADA4B7070140D843B7070140A3
:1031E0005D9BD8C3B7070140D843B70701401367B9
:1031F0008700D8C3A9A4B7070140D843B707014047
:103200001D9BD8C3B7070140D843B70701401367D8
:103210008700D8C32DA4B7070140D843B7070140A2
:103220001D9BD8C3B7070140D843B70701401367B8
:103230008701D8C329A4B7070140D44FB70701407D
:103240003707FDFF7D17758FD8CFB7070140D44FE3
:10325000832744FDA18313970701B70703007D8FE0
:10326000B7070140558FD8CFD9AAB7070140D44F2F
:10327000B70701403707FDFF7D17758FD8CFB70718
:103280000140D44F832744FDA18313970701B7075B
:1032900003007D8FB7070140558FD8CF4DA2B707E8
:1032A0000140D44FB70701403707F4FF7D17758FF2
:1032B000D8CFB7070140D44F832744FDA18313978C
:1032C0002701B7070C007D8FB7070140558FD8CF76
:1032D000BDA2B7070140D44FB70701403707F4FF3D
:1032E0007D17758FD8CFB7070140D44F832744FD92
:1032F000A18313972701B7070C007D8FB707014003
:10330000558FD8CF2DAAB7070140D44FB70701403A
:103310003707D0FF7D17758FD8CFB7070140D44F3F
:10332000832744FDA18313974701B70730007D8FA2
:10333000B7070140558FD8CF19A2B7070140D44F26
:10334000B70701403707D0FF7D17758FD8CFB70774
:103350000140D44F832744FDA18313974701B7074A
:1033600030007D8FB7070140558FD8CFC9A8B70768
:103370000140D44FB7070140370740FF7D17758FD5
:10338000D8CFB7070140D44F832744FDA1831397BB
:103390006701B707C0007D8FB7070140558FD8CFB1
:1033A00079A8B7070140D44FB7070140370740FF5E
:1033B0007D17758FD8CFB7070140D44F832744FDC1
:1033C000A18313976701B707C0007D8FB70701403E
:1033D000558FD8CFADA0B7070140D44FB7070140F4
:1033E000370700FD7D17758FD8CFB7070140D44F41
:1033F000832744FDA18313978701B70700037D8FBF
:10340000B7070140558FD8CF1DA8B7070140D44F4B
:10341000B7070140370700FD7D17758FD8CFB70775
:103420000140D44F832744FDA18313978701B70739
:1034300000037D8FB7070140558FD8CF0100832748
:10344000C4FD91E785451165EF60D07369A8032736
:10345000C4FD85476318F700854537050200EF6016
:10346000D07651A00327C4FD89476318F70085452E
:1034700037050400EF607075BDA00327C4FD8D47BC
:103480006318F700854537050800EF601074A1A8A0
:103490000327C4FD91476318F700854537051000E1
:1034A000EF60B07289A00327C4FD95476318F70049
:1034B000854513050004EF60507135A00327C4FD56
:1034C00099476318F700854513050008EF60F06F12
:1034D00019A80327C4FD9D476317F7008545130509
:1034E0000010EF60906E232004FE232204FE2324AC
:1034F00004FE232604FE832784FD2320F4FE2312EA
:1035000004FE231304FE231404FE231604FEB14715
:103510002315F4FEB7B702000327C4FD0A079387FB
:103520004710BA979C433E87930704FEBE853A85B1
:10353000EF70906AB7B702000327C4FD0A079387AC
:103540004710BA979C4385453E85EF80200C0100CB
:10355000B250225445618280411106C622C400083F
:10356000A1461386C1938145138581BAEF40501758
:103570000100B240224441018280797106D622D4F2
:103580000018232EA4FC232CB4FC230704FEA3075D
:1035900004FE231604FE054693050008138541BC6E
:1035A000EFE03FA205469305F00F138541BCEFE025
:1035B0005FA101468145138541BCEFE09FA01946FC
:1035C0009305F00F138541BCEFE0BF9F9307E4FE26
:1035D00085463E8693053008138541BCEFE07FB1F8
:1035E0008347E4FE93E7470093F7F70F3E86930582
:1035F0003008138541BCEFE0DF9C1D469305F00FBA
:10360000138541BCEFE0FF9B054693051008138529
:1036100041BCEFE01F9B054693050008138541BCA4
:10362000EFE03F9A1306B00693054009138541BCAD
:10363000EFE03F99014693053008138541BCEFE068
:103640005F98230704FE81A803A7418289679387B7
:1036500007F4B357F70285453E85EFC0FFE99307AE
:10366000E4FE85463E8693053008138541BCEFE0B5
:103670005FA88357C4FEC207C183138717004207A0
:1036800041832316E4FE1307F00F6376F7008547A6
:10369000A307F4FE11A88347E4FEDDD70347E4FE49
:1036A0009307F00FE302F7FA8347F4FE6393070CE6
:1036B000054693053008138541BCEFE09F909307C2
:1036C000E4FE85463E8693052009138541BCEFE064
:1036D0005FA28347E4FE93F7F70713F7F70F8327FB
:1036E000C4FD2380E7008347E4FE9D8313F7F70FB3
:1036F000832784FD2380E700014693051008138586
:1037000041BCEFE01F8C19469305F00F138541BCB7
:10371000EFE03F8B9307E4FE85463E869305300835
:10372000138541BCEFE0FF9C8347E4FE3E86930592
:103730003008138541BCEFE0DF8805469305F00FA4
:10374000138541BCEFE0FF8705468145138541BCE9
:10375000EFE03F8701469305F00F138541BCEFE092
:103760005F86014693050008138541BCEFE07F8525
:1037700011A001008347F4FE3E85B25022544561FA
:103780008280797122D60018AA872E87231FF4FC25
:10379000BA87A30EF4FC0347D4FDB7373A009387EA
:1037A00007F0B307F7021387471F9307803EB3570D
:1037B000F7022326F4FE0357E4FD8327C4FE3307F4
:1037C000F7028327C4FE85833E979307803EB35755
:1037D000F7023E85325445618280797122D6001805
:1037E000232EA4FCAE87A30DF4FC0347B4FDB7372A
:1037F0003A00938707F0B307F7021387471F930731
:10380000803EB357F7022326F4FE0327C4FD930737
:10381000803E3307F7028327C4FE85833E978327C4
:10382000C4FEB357F7023E853254456182800111D0
:1038300022CE0010AA872317F4FE8357E4FE93F7E5
:10384000F70F0357E4FE218342074183B397E70054
:10385000C207C1838507C207C1833E8572440561E3
:103860008280797122D60018AA87231FF4FC2326B0
:1038700004FE231504FE231404FE8357E4FDA9CBA4
:103880008357E4FDFD172326F4FE19A88327C4FE01
:1038900085832326F4FE8357A4FE85072315F4FEB3
:1038A0008327C4FE93F707F0F5F38357A4FEA2071E
:1038B0001397070141878327C4FEC207C18793F787
:1038C000F70FC207C187D98FC207C1872314F4FE3F
:1038D000835784FE3E85325445618280797106D6D5
:1038E00022D40018232EA4FCA30704FE9307F4FEA1
:1038F00085463E868545138541BCEFE08FFF8347B3
:10390000F4FE918393F7F70F858B13F7F70F832757
:10391000C4FD2380E7008347F4FE8D8393F7F70F00
:10392000858B13F7F70F8327C4FD2381E7008347B7
:10393000F4FE898393F7F70F858B13F7F70F83272F
:10394000C4FDA380E7008347F4FE998393F7F70F44
:10395000858B13F7F70F8327C4FDA381E700834707
:10396000F4FE9D8313F7F70F8327C4FD2382E7003E
:103970000100B250225445618280797106D622D46A
:103980000018232EA4FCA30704FE8327C4FD95E79B
:103990009307F4FE85463E8693050005138541BCDA
:1039A000EFE02FF58347F4FE850793F7F70F8607BF
:1039B00093F7F70FA307F4FE35A80327C4FD854747
:1039C0006317F7029307F4FE85463E8693050007CA
:1039D000138541BCEFE0EFF18347F4FE850793F7D1
:1039E000F70F860793F7F70FA307F4FE21A0FD5703
:1039F000A307F4FE8347F4FE3E85B250225445618E
:103A00008280797106D622D40018232EA4FC232CA0
:103A1000B4FC231704FE01458D37AA8713970701CD
:103A20004183832784FD2390E7009307C4FE8546E6
:103A30003E8693056004138541BCEFE08FEB83471E
:103A4000C4FEC207C18385071397070141838327FB
:103A500084FD2392E700832784FD03D74700832753
:103A600084FD83D7070093F7F70FBE853A85113B96
:103A70002A87832784FDD8C79307C4FE89463E86DC
:103A800093051005138541BCEFE0AFE68347C4FE04
:103A9000A2071397070141878347D4FEC207C18756
:103AA000D98FC207C1872317F4FE8357E4FE3E85F2
:103AB000BD3BAA873E87832784FD2393E7008327A6
:103AC00084FD03D76700832784FD83D7070093F71E
:103AD000F70FBE853A8575312A87832784FD98CBF9
:103AE0000545613DAA87139707014183832784FD1C
:103AF0002391E7009307C4FE89463E86930510078D
:103B0000138541BCEFE0EFDE8347C4FEA2071397A5
:103B1000070141878347D4FEC207C187D98FC207F7
:103B2000C1872317F4FE8357E4FE3E850933AA8735
:103B30003E87832784FD2394E7008327C4FD83C742
:103B4000370095C3832784FD03D78700832784FD2F
:103B500083D76700B307F740139707014183832793
:103B600084FD2394E700832784FD03D78700832700
:103B700084FD83D7270093F7F70FBE853A85EFF0D2
:103B80005FC02A87832784FDD8CB0100B25022541E
:103B900045618280797106D622D40018AA87A30FC6
:103BA000F4FCA30704FE230704FE231604FE834748
:103BB000F4FD93E7170093F7F70F3E8681451385D1
:103BC00041BCEFE00FC09307E4FE85463E869305B7
:103BD0006004138541BCEFE0CFD181A803A74182E7
:103BE0008967938707F4B357F70285453E85EFC091
:103BF000BF909307E4FE85463E86930560041385D7
:103C000041BCEFE00FCF8357C4FEC207C1831387C7
:103C10001700420741832316E4FE1307F00F637673
:103C2000F7008547A307F4FE29A08347E4FE9D8B98
:103C3000D5D78347F4FE91EF0546AD45138541BCCA
:103C4000EFE02FB801468145138541BCEFE06FB727
:103C500011A001008347F4FE3E85B2502254456115
:103C600082801D7186CEA2CC80102326A4FAA307E1
:103C700004FE231204FE0327C4FA95679387F7E135
:103C800063E6E7008547A307F4FE05AA85679387E7
:103C9000878E2324F4FE930744FD3E85EFF01FC476
:103CA0001307C4FB930744FDBA853E85993B8347C0
:103CB00044FD91CB032784FC832784FEBA97938726
:103CC000E7242324F4FE834764FD81CF832784FC0B
:103CD0009387272B8607032784FEBA972324F4FEB5
:103CE00029A8834754FD91CB032784FC832784FEB6
:103CF000BA97938747292324F4FE834774FD91CB19
:103D00000327C4FC832784FEBA979387472923247B
:103D1000F4FE834784FDD5C3832784FE93876722FF
:103D20002324F4FE032784FE8327C4FA63F6E70006
:103D30008547A307F4FE51A00327C4FA832784FE16
:103D4000B307F7402320F4FE8357E4FB93F7F70F04
:103D5000BE85032504FEEFF05FA8AA872313F4FEB7
:103D6000834774FD81CB035724FC835764FEBA97C5
:103D70002313F4FE835764FE3E85EFF09FAEAA87BF
:103D80002312F4FE93071007230EF4FC835744FE1E
:103D9000A183C207C18393F7F70FA30EF4FC8357E7
:103DA00044FE93F7F70F230FF4FC9307C4FD0D4671
:103DB000BE85138541BCEFE00F968347F4FE3E8538
:103DC000F640664425618280397106DE22DC80007F
:103DD0008567938767B32326F4FE930744FE3E85E9
:103DE000EFF0DFAF1307C4FC930744FEBA853E85AE
:103DF000EFF03FC1834744FE91CB032784FD832727
:103E0000C4FEBA979387E7242326F4FE834764FE13
:103E100081CF832784FD9387272B86070327C4FE42
:103E2000BA972326F4FE29A8834754FE91CB032793
:103E300084FD8327C4FEBA97938747292326F4FE7F
:103E4000834774FE91CB0327C4FD8327C4FEBA9732
:103E5000938747292326F4FE834784FE91CB0327CB
:103E600004FE8327C4FEBA97938767222326F4FEB5
:103E70008327C4FE3E85F2506254216182807971AD
:103E800006D622D40018272EA4FC8727C4FD53078A
:103E900000F0D307F7A085E30725C4FDEF20321E0D
:103EA000B7A7020003A6075B83A6475BEF10225764
:103EB000AA876344F000854711A0814713F7F70FE5
:103EC0001306801EB7A70200938587503A85EF300E
:103ED00040520727C4FDB7A7020087A7875BD377A7
:103EE000F710D39717C02317F4FE93074004230459
:103EF000F4FE8357E4FEA183C207C18393F7F70F53
:103F0000A304F4FE8357E4FE93F7F70F2305F4FEB2
:103F1000930784FE0D46BE85138541BCEFD0BFFFDD
:103F20000100B250225445618280011106CE22CC9C
:103F300000109307C4FE85463E86CD45138541BCDF
:103F4000EFE02F9B8347C4FE9D8BB1CB9307C4FE4C
:103F500089463E86F945138541BCEFE08F9983473A
:103F6000C4FEC207C183A2071397070141832394AC
:103F7000E1808347D4FE13970701418383D7818073
:103F8000D98F1397070141832394E1800546AD45FE
:103F9000138541BCEFE0EF8205472382E19483471C
:103FA000C4FEC18B85C39307C4FE89463E86F9458E
:103FB000138541BCEFE0EF930546AD45138541BC49
:103FC000EFE02F800100F240624405618280797148
:103FD00006D622D40018A30304FEA30704FEA306FA
:103FE00004FE230704FE930704FE194681453E851F
:103FF000EFC00FA1930784FD1D4681453E85EFC0AC
:104000002FA01307500693066006294693059002D9
:10401000138541BCEFE04FB2C14605468545130507
:10402000A008EFC0FFD203A741828967938707F4F6
:10403000B357F702930540063E85EFC0EFCBB707B5
:1040400000209387C7009C4B13070040D8CB03A7E1
:1040500041828967938707F4B357F70293052003DA
:104060003E85EFC06FC9B70700209387C7009C4B00
:104070001307004098CB03A741828967938707F411
:10408000B357F702930540063E85EFC0EFC6930590
:104090009008138541BCEFD0FFFAAA87A306F4FE6F
:1040A0008347D4FE93E7170093F7F70F3E869305F7
:1040B0009008138541BCEFD0DFF0014693058008DE
:1040C000138541BCEFD0FFEF05469305000813852B
:1040D00041BCEFD01FEF05469305F00F138541BC9F
:1040E000EFD03FEE01468145138541BCEFD07FED17
:1040F000930774FE85463E8693051009138541BCDF
:10410000EFD03FFF05468145138541BCEFD07FEBE3
:1041100001469305F00F138541BCEFD09FEA01469D
:1041200093050008138541BCEFD0BFE99305000655
:10413000138541BCEFD01FF1AA87A306F4FE834785
:10414000D4FE93E7270193F7F70F3E869305000609
:10415000138541BCEFD0FFE6B7A7020087A7C75B76
:104160005385F720EFF0BFD11306F00F8545138577
:1041700041BCEFD01FE5930784FD13871700930719
:1041800084FDBA853E85EFF04FBFAA879DC3854762
:10419000A307F4FE9306F024B7A702001386875006
:1041A000B7A70200938507560145EF30202B6F001B
:1041B000E074930704FE99463E869305000B138531
:1041C00041BCEFD01FF305469305F00F138541BCAA
:1041D000EFD03FDF01469305F004138541BCEFD0DB
:1041E0005FDE1306C0029305E004138541BCEFD0E7
:1041F0005FDD01469305F00F138541BCEFD07FDCF6
:104200001306400B9305600B138541BCEFD07FDB99
:10421000834794FD99C3B14711A08147230DF4FC56
:10422000230704FE55A08347A4FD0347E4FE63680B
:10423000F7000347B4FD834784FD6319F704834700
:10424000E4FE8D8313F6F70FB287130704FFBA97C6
:1042500083C707FF1397870161878347E4FE9D8B20
:104260008546B397F600E207E18793C7F7FFE207B9
:10427000E187F98F139787016187B2871377F70F6B
:10428000930604FFB6972388E7FE15A88347E4FE4C
:104290008D8393F7F70F130704FFBA9783C707FFC0
:1042A0003E878347E4FE9D8BB357F740858B81CBD8
:1042B0008347B4FD850793F7F70FA30DF4FC8347FD
:1042C000E4FE85072307F4FE0347E4FE9307F002AC
:1042D000E3FBE7F4930700FB230CF4FC854723077B
:1042E000F4FE05A08347E4FEFD17130704FFBA9709
:1042F00083C707FFA30CF4FC8347E4FE850723076D
:10430000F4FE0347E4FE9947E3FEE7FC930784FDD0
:104310001D46BE85138541BCEFD0FFBF0546930502
:10432000F00F138541BCEFD0DFC9014681451385ED
:1043300041BCEFD01FC901469305F00F138541BC66
:10434000EFD03FC80146A545138541BCEFD07FC7DC
:104350000146C145138541BCEFD0BFC60146C545E6
:10436000138541BCEFD0FFC5054693054002138578
:1043700041BCEFD01FC51306F00F93055002138503
:1043800041BCEFD01FC4014693055007138541BCC3
:10439000EFD03FC305469305F00F138541BCEFD026
:1043A0005FC21306C0029305E004138541BCEFD041
:1043B0005FC1014693058004138541BCEFD07FC0E7
:1043C0001306000293050003138541BCEFD07FBFA5
:1043D00001469305F00F138541BCEFD09FBE2546E3
:1043E00093050003138541BCEFD0BFBD0146930583
:1043F0004005138541BCEFD0DFBC11469305100387
:10440000138541BCEFD0FFBB0D46930520031385F8
:1044100041BCEFD01FBB1306300893050004138581
:1044200041BCEFD01FBA13065002930560041385F8
:1044300041BCEFD01FB9014693050006138541BC6E
:10444000EFD03FB8014693057002138541BCEFD011
:104450005FB7194693050005138541BCEFD07FB6C1
:10446000014693051005138541BCEFD09FB5130697
:10447000600993052005138541BCEFD09FB4214608
:1044800093056005138541BCEFD0BFB3130600034D
:1044900093057005138541BCEFD0BFB2014693056B
:1044A0001006138541BCEFD0DFB10146930520060D
:1044B000138541BCEFD0FFB001469305400613853C
:1044C00041BCEFD01FB0014693055006138541BC97
:1044D000EFD03FAF1306000A93056006138541BC79
:1044E000EFD03FAE05469305F00F138541BCEFD0EA
:1044F0005FAD1306200393052002138541BCEFD066
:104500005FAC514693057004138541BCEFD07FAB7F
:104510001306F00F93059004138541BCEFD07FAADA
:1045200001469305A004138541BCEFD09FA9014625
:104530009305F00F138541BCEFD0BFA82946930522
:10454000A007138541BCEFD0DFA701469305B00754
:10455000138541BCEFD0FFA6130610029305800718
:10456000138541BCEFD0FFA505469305F00F1385D9
:1045700041BCEFD01FA513064003930530021385FD
:1045800041BCEFD01FA4014693052004138541BC14
:10459000EFD03FA31306F00F93054004138541BCF1
:1045A000EFD03FA21306600293055004138541BC6F
:1045B000EFD03FA1154693056004138541BCEFD0B1
:1045C0005FA01306000493050004138541BCEFD0DF
:1045D0005F9F1946B945138541BCEFD09F9E694640
:1045E00093050002138541BCEFD0BF9D1306000464
:1045F00093053004138541BCEFD0BF9C0146930561
:10460000F00F138541BCEFD0DF9B0D4693054003AF
:10461000138541BCEFD0FF9A130640049305500365
:10462000138541BCEFD0FF9905469305F00F138524
:1046300041BCEFD01F99114693051003138541BC6F
:10464000EFD03F9825469305B004138541BCEFD0C9
:104650005F9715469305C004138541BCEFD07F9644
:1046600011469305D004138541BCEFD09F950146B8
:104670009305F00F138541BCEFD0BF94014693051D
:104680004004138541BCEFD0DF931306000293056D
:104690005004138541BCEFD0DF922146930570048E
:1046A000138541BCEFD0FF9113068002930580046F
:1046B000138541BCEFD0FF9001469305700613852A
:1046C00041BCEFD01F90114693050007138541BCF4
:1046D000EFD03F8F054693051007138541BCEFD0FF
:1046E0005F8E1306E00F93052007138541BCEFD0C2
:1046F0005F8D014693056007138541BCEFD07F8C29
:10470000014693057007138541BCEFD09F8B05468A
:104710009305F00F138541BCEFD0BF8A0546B54520
:10472000138541BCEFD0FF8901469305F00F138537
:1047300041BCEFD01F89054693050008138541BC95
:10474000EFD03F881306800F8545138541BCEFD01D
:104750005F8705469305F00F138541BCEFD07F8638
:1047600005469305E008138541BCEFD09F850546BB
:104770008145138541BCEFD0DF8401469305F00FDE
:10478000138541BCEFD0FF830146930500081385D4
:1047900041BCEFD01F831146A945138541BCEFD022
:1047A0005F8293054008138541BCEFD0BF89AA877B
:1047B000A306F4FE8347D4FEBD9B93F7F70F3E8616
:1047C00093054008138541BCEFD0AFFF0546AD45CA
:1047D000138541BCEFD0EFFEEFF00FDF2324A4FEE2
:1047E0001306800E8545138541BCEFD08FFD032550
:1047F00084FEEFF00FC705468545138541BCEFD019
:104800004FFC13050004EFF0EFB8AA8795C3854766
:10481000A307F4FE9306802DB7A7020013868750E6
:10482000B7A70200938587570145EF203043F9A0D1
:1048300009468545138541BCEFD0AFF80145EFF03F
:104840006FB5AA8795C38547A307F4FE9306F02D9D
:10485000B7A7020013868750B7A702009385875732
:104860000145EF20B03F59A81306800E85451385FA
:1048700041BCEFD00FF503A741828967938707F406
:10488000B357F702930540063E85EFB0FFC60546D5
:1048900093050008138541BCEFD0AFF205469305A0
:1048A000F00F138541BCEFD0CFF101468145138550
:1048B00041BCEFD00FF1834774FE3E86930510098B
:1048C000138541BCEFD0EFEF05468145138541BC10
:1048D000EFD02FEF01469305F00F138541BCEFD0C9
:1048E0004FEE014693050008138541BCEFD06FEDF4
:1048F00009468145138541BCEFD0AFEC8347F4FEF8
:104900003E85B250225445618280411106C622C4C0
:10491000000883A7C1940547638BE7006387070CF2
:104920000947638DE7000D47638FE702E1A083A786
:1049300081941387170023A4E1946DA883A7819421
:104940001387170023A4E19403A78194A54763F07C
:10495000E70AB70700209387C7009C4B1167D8CBA5
:1049600023A4019469A003A7019585476313F70861
:104970001305F008EFC0AFB9AA87A5C31945EFE04A
:10498000CFA5AA873E8783A781941D8F93076009CF
:1049900063F1E7061945EFE04FB483A78194D3F79D
:1049A00017D05385F720EF10926DB7A7020003A62A
:1049B000075C83A6475CEF00F231AA872E883E850C
:1049C000C285EF109254AA8713970701418323955C
:1049D000E180094723A8E19429A81945EFE0EF9F5A
:1049E000AA873E8723A4E19429A0010021A0010009
:1049F00011A001000100B240224441018280411116
:104A000006C622C4000883A7C1940947637CF70047
:104A10000D47639AE7001945EFE02FAC054723A83F
:104A2000E19411A001000100B240224441018280C2
:104A3000411122C60008B70700209387C7009C4B8E
:104A4000116798CB0100324441018280011106CEEA
:104A500022CC0010AA872E87A307F4FEBA8723076B
:104A6000F4FEB70700209387C7009C471307004058
:104A7000D8CB0347E4FE8347F4FE3A86BE8509455A
:104A8000EFD0DFA8B70700209387C7009C47130724
:104A9000004098CB0100F240624405618280797148
:104AA00006D622D40018AA87A30FF4FCB70700206B
:104AB0009387C7009C4713070040D8CB8347F4FD7A
:104AC00093E707F893F7F70FBE850945EFD01FB1BD
:104AD000AA87A307F4FEB70700209387C7009C4767
:104AE0001307004098CB8347F4FE3E85B250225412
:104AF00045618280011106CE22CC0010AA872324B2
:104B0000B4FE3287A307F4FEBA872307F4FEB70783
:104B100000209387C7009C4713070040D8CB8347EA
:104B2000F4FE93E707F893F7F70F0347E4FEBA861E
:104B3000032684FEBE850945EFD03FB7B7070020A6
:104B40009387C7009C471307004098CB0100F240B1
:104B5000624405618280011106CE22CC0010A307B9
:104B600004FE230704FE231604FE89A08357C4FE17
:104B7000138717002316E4FE1307F00F6376F70080
:104B800085472307F4FE05A813055007EFF03FF112
:104B9000AA87A307F4FE03A741828967938707F4D6
:104BA000B357F702A9453E85EFB01F950347F4FEC2
:104BB000C947E31DF7FA8347E4FE3E85F2406244AD
:104BC00005618280011106CE22CC0010930784FE7D
:104BD0001946BE851305B003EFF0DFF1834784FE6D
:104BE000A207139707014187834794FEC207C18735
:104BF000D98FC207C187D3F707D027A2F196834781
:104C0000A4FEA2071397070141878347B4FEC2079A
:104C1000C187D98FC207C187D3F707D027A4F196E0
:104C20008347C4FEA2071397070141878347D4FE39
:104C3000C207C187D98FC207C187D3F707D027A67C
:104C4000F1960100F240624405618280011106CEB6
:104C500022CC0010930784FE1946BE85130530044C
:104C6000EFF05FE9834784FEA207139707014187AE
:104C7000834794FEC207C187D98FC207C187D3F784
:104C800007D027ACF1948347A4FEA207139707012E
:104C900041878347B4FEC207C187D98FC207C18746
:104CA000D3F707D027AEF1948347C4FEA20713972A
:104CB000070141878347D4FEC207C187D98FC20746
:104CC000C187D3F707D027A0F19687A70196D3977E
:104CD00007C0139707014187239AE1940100F2402E
:104CE000624405618280797122D60018AA87231F49
:104CF000F4FC232604FE8317E4FD53F707D0B7A77F
:104D0000020087A7C765D377F7182726F4FE0100AE
:104D10008727C4FE5385F7203254456182800111F4
:104D200006CE22CC0010A30504FEA30704FE231622
:104D300004FE03A741828967938707F4B357F702FC
:104D4000A9453E85EFB04FFB1308F00F89679387A5
:104D5000470209671307570289669386360237961A
:104D600098001306066881450945EFD01FA3C14688
:104D7000054685451305A004EFB09FFDEFF0BFDDAC
:104D8000AA8795C393068011B7A702001386875C94
:104D9000B7A70200938547620145EF20206C854745
:104DA000A307F4FE7DA8930500081305B006EFF0F5
:104DB000FFC903A741828967938707F4B357F702B6
:104DC00089453E85EFB04FF31305B006EFF03FCDB8
:104DD000AA87A305F4FE8357C4FE13871700231682
:104DE000E4FE1307F00F6373F70293068012B7A770
:104DF00002001386875CB7A702009385076401450C
:104E0000EF20C0658547A307F4FE39A00347B4FE31
:104E100093071004E31AF7FA0347F4FE854763018A
:104E2000F70485451305B006EFF05FC28145130511
:104E3000C006EFF0BFC185456945EFF03FC19D4514
:104E40006545EFF0BFC0E1456D45EFF03FC0C1459E
:104E50007145EFF0BFBF8D457545EFF03FBF11A025
:104E600001008347F4FE3E85F24062440561828082
:104E7000397106DE22DC80002326A4FC8547A307C7
:104E8000F4FE231604FE232404FE232E04FC83D701
:104E900081973E87930700236316F700A5472324D5
:104EA000F4FE29A0A1472324F4FE010049A09307A2
:104EB00050FA2300F4FE832784FE8A070327C4FCEC
:104EC000BA978397070093F7F70FA300F4FE8327A1
:104ED00084FE8A070327C4FCBA978397270023130D
:104EE000F4FE835764FEA183C207C18393F7F70FD3
:104EF0002301F4FE835764FE93F7F70FA301F4FE3A
:104F0000930704FE1146BE851145EFD01FEF03A79E
:104F100041828967938707F4B357F70289453E8535
:104F2000EFB08FDD832784FEFD172324F4FE0327D3
:104F300084FE9307E00FE3FCE7F6138581BAEF20C8
:104F400090052A87894763FFE7028D47232EF4FCEB
:104F50001307C4FD930704FE81463A86BE85138578
:104F600081BAEF20B049034714FE9307F00F63089E
:104F7000F700034724FE9307F00F6315F700A3071C
:104F800004FE35A003A741828967938707F4B357CE
:104F9000F70285453E85EFB02FD68357C4FE1387B1
:104FA00017002316E4FE1307F007E378F7F88347AA
:104FB000F4FE3E85F250625421618280397106DE32
:104FC00022DC80002326A4FCA30704FE231604FE93
:104FD000232404FE232E04FC83D781973E87930766
:104FE00000236316F700A5472324F4FE29A0A14758
:104FF0002324F4FE0100832784FEFD172324F4FEFE
:1050000029AA03D781979307F02263EDE70083274E
:1050100084FE8A070327C4FCBA9703970700A547B5
:105020006307F70E930750FA2300F4FEC557A30059
:10503000F4FE832784FE8A070327C4FCBA9783976C
:1050400007002313F4FE835764FEA183C207C183C4
:1050500093F7F70F2301F4FE835764FE93F7F70FDE
:10506000A301F4FE930704FE1146BE851145EFD05F
:10507000DFD8231604FE138581BAEF20C0712A877A
:10508000894763F7E7048D47232EF4FC1307C4FD1B
:10509000930704FE81463A86BE85138581BAEF20C8
:1050A000F035834714FEA20793960701C186834714
:1050B00024FE139707014187832784FE8A0703266E
:1050C000C4FCB297558F420741872391E70035A072
:1050D00003A741828967938707F4B357F702854591
:1050E0003E85EFB06FC18357C4FE138717002316A8
:1050F000E4FE1307F007E370F7F80357C4FE9307C5
:10510000000863F7E7008547A307F4FE19A801002C
:10511000832784FEFD172324F4FE832784FEE39275
:1051200007EE8347F4FE3E85F2506254216182808F
:10513000011106CE22CC0010A30704FE9307F4FE53
:10514000BE851145EFD05FE00347F4FE9307500A98
:105150006316F700138581BAEF20C0538347F4FE2E
:10516000BE85138581BAEF2060670100F24062447A
:1051700005618280411122C6000805472388E19617
:105180000100324441018280011106CE22CC001080
:10519000231704FE231604FE232004FE930750FA6F
:1051A0002302F4FEC557A302F4FE9307200F231534
:1051B000F4FE8357A4FEA183C207C18393F7F70FC0
:1051C0002303F4FE8357A4FE93F7F70FA303F4FE23
:1051D000930744FE1146BE851145EFD01FC21385CB
:1051E00081BAEF20405B2A87894763F0E7048D4747
:1051F0002320F4FE130704FE930744FE81463A86FB
:10520000BE85138581BAEF20701F834754FEA20725
:10521000139707014187834764FEC207C187D98F6F
:10522000C207C1872316F4FE35A003A74182896710
:10523000938707F4B357F70285453E85EFB0CFABB0
:105240008357E4FE138717002317E4FE1307F007C4
:10525000E377F7F88357C4FE3E85F2406244056168
:105260008280397106DE22DC8000A30704FE054738
:1052700023AAE1969307C4FD1307C00493062006F2
:105280001306401F81453E85EFD00F8B03A7418257
:105290008967938707F4B357F7029305800C3E851F
:1052A000EFB08FA51307C4FDB70700209385070251
:1052B0003A85EFE03101AA87638F070C23AA019694
:1052C00091679386270691671386C704896793853C
:1052D00007581145EFD07FCD85451145EFD07FBEF2
:1052E00003A741828967938707F4B357F7029305B1
:1052F000800C3E85EFB04FA0B757000013864717CC
:10530000B7570000938507130D45EF10206CEFE0B1
:10531000AFA4EFF07FE7AA873E87239CE196B7070B
:10532000002013850702EFF0BFB4AA879DC793063C
:10533000701BB7A7020013860766B7A70200938504
:10534000C76B0145EF208011014681450145EF10F3
:10535000E0678547A307F4FE3DA8B7070020138543
:105360008704EFF0BFC5AA879DC79306301CB7A777
:10537000020013860766B7A702009385876D014573
:10538000EF20C00D014681450145EF10206485479F
:10539000A307F4FE0100B757000013864717B7575D
:1053A0000000938507130D45EF10406291473EC4FE
:1053B00095473EC299473EC0930890021308800269
:1053C000930760021307B004930690041306800449
:1053D000A9452545EFB04F99854699671386078201
:1053E0008145B7670020138547BFEFB08FA883477B
:1053F000F4FE3E85F250625421618280011106CE96
:1054000022CC0010AA87A307F4FEB70700209387D9
:10541000C700DC47414798CBB70700209387C700F8
:10542000DC474147D8CBB70700209387C700DC474C
:1054300013070008D8CB8347F4FEBE850545EFC0AF
:105440001FFBB70700209387C700DC47414798CB75
:10545000B70700209387C700DC471307000898CBE5
:10546000B70700209387C700DC474147D8CB01002E
:10547000F240624405618280011106CE22CC001008
:10548000AA8736872317F4FEAE872316F4FEB28769
:105490002315F4FEBA872314F4FE83C74181C207A3
:1054A000C1830357E4FEB337F70093F7F70F3E8746
:1054B0001306E008B7A702009385476F3A85EF10FF
:1054C000507383C75181C207C1830357C4FEB337EA
:1054D000F70093F7F70F3E871306F008B7A702000F
:1054E0009385476F3A85EF10D07083C74181C2071B
:1054F000C1830357A4FEB337F70093F7F70F3E8736
:1055000013060009B7A702009385476F3A85EF108D
:10551000506E83C75181C207C183035784FEB337DE
:10552000F70093F7F70F3E8713061009B7A702009D
:105530009385476F3A85EF10D06B83A7C19791C7CA
:1055400003A7C19785476317F7081305A002EFF07B
:10555000FFEA81450545EFC09FE98357E4FE93F7D5
:10556000F70F890793F7F70FBE850545EFC03FE8B2
:1055700081450545EFC0BFE78357A4FE93F7F70FBA
:10558000890793F7F70FBE850545EFC05FE6130562
:10559000B002EFF0BFE681450545EFC05FE58357F8
:1055A000C4FE93F7F70F850793F7F70FBE85054500
:1055B000EFC0FFE381450545EFC07FE3835784FEDD
:1055C00093F7F70F850793F7F70FBE850545EFC0F3
:1055D0001FE269A01305A002EFF05FE281450545D7
:1055E000EFC0FFE08357E4FE93F7F70F850793F7CB
:1055F000F70FBE850545EFC09FDF81450545EFC02C
:105600001FDF8357A4FE93F7F70F850793F7F70F74
:10561000BE850545EFC0BFDD1305B002EFF01FDE0C
:1056200081450545EFC0BFDC8357C4FE93F7F70FF4
:10563000890793F7F70FBE850545EFC05FDB81450E
:105640000545EFC0DFDA835784FE93F7F70F89072C
:1056500093F7F70FBE850545EFC07FD91305C0024C
:10566000EFF0DFD90100F240624405618280797178
:1056700006D622D400189307C4FD3E85EF101063B0
:105680008547231EF4FC83C74181C207C183231FC2
:10569000F4FC83C75181C207C1832310F4FE83A7A2
:1056A00001810547638AE70099EF99472301F4FEDA
:1056B000A147A301F4FE09A8A1472301F4FEC147B5
:1056C000A301F4FE11A00100B7670000938787DAF9
:1056D0002324F4FEB75700009387476F2326F4FE78
:1056E0009307C4FD3E85EF1010620100B2502254B2
:1056F00045618280011106CE22CC001083C7418112
:105700003E8783C75181B307F7022326F4FEB7070C
:1057100000209387C700DC474147D8CB83C741812E
:10572000C207C183FD1713970701418383C75181C6
:10573000C207C183FD17C207C183BE863A86814571
:105740000145EFF07FD321A883D7E180BE850545D1
:10575000EFC0FFD08327C4FEFD172326F4FE832766
:10576000C4FEFDF3B70700209387C700DC4741471D
:1057700098CB0100F240624405618280011122CE83
:1057800000102326A4FE0327C4FE23AEE1960327C0
:10579000C4FE854763EBE700130700F8238AE18026
:1057A000130700FAA38AE18009A8130700FA238AE5
:1057B000E180130700F8A38AE180010072440561CB
:1057C0008280011122CE0010AA872E872317F4FEB3
:1057D000BA872316F4FE0357E4FE2396E1800357AD
:1057E000C4FE2397E18001007244056182800111AB
:1057F00006CE22CC0010AA87AE8632872317F4FE8D
:10580000B6872316F4FEBA872315F4FE83C74181B9
:10581000C207C1830357E4FEB337F70093F7F70FCE
:105820003E871306B013B7A702009385476F3A85EA
:10583000EF10303C83C75181C207C1830357C4FEB8
:10584000B337F70093F7F70F3E871306C013B7A7D8
:1058500002009385476F3A85EF10B039B7070020F3
:105860009387C700DC474147D8CB8356C4FE035615
:10587000E4FE0357C4FE8357E4FEBA853E85EFF08D
:10588000BFBF8357A4FEBE850545EFC05FBDB70708
:1058900000209387C700DC47414798CB0100F240C6
:1058A000624405618280797106D622D40018AA87E5
:1058B000231FF4FCAE87231EF4FCB287231DF4FCE7
:1058C000B687231CF4FCBA87231BF4FC83C74181F1
:1058D000C207C1830357E4FDB337F70093F7F70F0F
:1058E0003E8713063015B7A702009385476F3A85A8
:1058F000EF10303083C75181C207C1830357C4FD05
:10590000B337F70093F7F70F3E8713064015B7A795
:1059100002009385476F3A85EF10B02D83C7418110
:10592000C207C1830357A4FDB337F70093F7F70FFE
:105930003E8713065015B7A702009385476F3A8537
:10594000EF10302B83C75181C207C183035784FDF9
:10595000B337F70093F7F70F3E8713066015B7A725
:1059600002009385476F3A85EF10B0280357E4FD96
:105970008357A4FD6374F700854711A0FD572317D3
:10598000F4FE0357C4FD835784FD6374F700854715
:1059900011A0FD572316F4FE232404FE232204FE47
:1059A0000357E4FD8357A4FD630EF7080357C4FDB6
:1059B000835784FDB307F74053F707D00357E4FD3F
:1059C0008357A4FDB307F740D3F707D0D377F71871
:1059D0002724F4FE8357C4FD53F717D08357E4FD03
:1059E000D3F617D0872784FED3F7F610D377F708BE
:1059F0002722F4FE0357C4FD835784FD1D8F935760
:105A0000F7413D8F1D8F8356E4FD8357A4FDB38777
:105A1000F64093D6F741B58F958F63DBE70CB5A8B9
:105A2000835664FD0357C4FD8357E4FD3686BA856B
:105A30003E85EFF0DFDB0357C4FE8357C4FDBA9702
:105A4000231EF4FC0357C4FD835784FDE31AF7FCBF
:105A500075A0835664FD0357C4FD8357E4FD368665
:105A6000BA853E85EFF0BFD80357C4FE8357C4FD07
:105A7000BA97231EF4FC8357C4FD53F717D087272A
:105A800044FE5377F708872784FED377F718D39718
:105A900007C0C207C187231FF4FC0357C4FD835707
:105AA00084FDE318F7FA99A8835664FD0357C4FDF3
:105AB0008357E4FD3686BA853E85EFF05FD3035702
:105AC000E4FE8357E4FDBA97231FF4FC8357E4FDFB
:105AD00053F717D0872784FE5377F710872744FEA4
